:0E0000000C944B000C94A4010C94A7010C94DA
:10000E0000000C9487010C9400000C9400000C94DA
:10001E0000000C9400000C9400000C9400000C9452
:10002E0000000C9400000C9400000C9400000C9442
:10003E0000000C9400000C9400000C9400000C9432
:10004E0000000C9400001027E80364000A00010071
:10005E000010000110000100070605040201000354
:10006E00020325753A25753A25750046554C4C21E7
:10007E000025752073747564656E7473000080C0FE
:10008E00020060018C000000F894EE27ECBBF1E05A
:10009E00FBBFEBBFE5BF8DE0A2E0BB27ED938A95DA
:1000AE00E9F780E094E0A0E6ED930197E9F7EEE83A
:1000BE00F0E085919591009761F0A591B59105902D
:1000CE001590BF01F00105900D920197E1F7FB012C
:1000DE00F0CFEFE5EDBFE4E0EEBFC0E6D1E00C946B
:1000EE0078002A978AE060E070E0E6E6F0E0CDD393
:1000FE0053E043E014B233D3E4BB67B3EE81A1E027
:10010E00D8D31E2EED81D5D31E2A2ED3E62BE7BBD8
:10011E001AB2E42F2ED3EABB67B3EB81A1E0C9D3A9
:10012E001E2EEA81C6D31E2AE981C3D31E2A26D3E8
:10013E00E62BE7BB7894E9B7E064E9BFE5B5E46088
:10014E00E5BD62B3E885A1E0B4D31E2EEF81B1D335
:10015E00E129E62BE2BBEBB7E06CEBBFE5B7E26063
:10016E00E5BFE5B7E860E5BFF3D0A0E15ED1A52F0E
:10017E00F6D09F01A5E0A29FF001A39FF00DDF0135
:10018E00EFEFF0E0ABD3A4E6B0E0A0D38F01A4E68E
:10019E00B0E0C4D3E0E7F0E0FA93EA93E72DF3D2B0
:1001AE00E62DF1D2E92DEFD28CE09DD22E96E0E035
:1001BE00EA93A1E00BD1E6E7F0E0FA93EA93F801B7
:1001CE0066277727E5D2E9E1F0E04E165F067CF070
:1001DE00EBE0EA93A1E0FAD0E9E7F0E0FA93EA93D4
:1001EE0080E081D2229615B2BAD2E5BB0DC00024B2
:1001FE000414050434F4D1D215B2E985BAD2E5BBA4
:10020E0003C044245524C9D2D3D224F000240414AC
:10021E0005040CF002C0D1D213C0D5D214F0C8D24E
:10022E000CF003C0CAD2D4D20FC0CDD234F4C5D292
:10023E00CFD2E8BB18B298D20BC018B2EE8199D2C9
:10024E00E8BB18B2ED8195D2E8BB18B2EC8191D221
:10025E00E8BB0B30E0E01E0718F40050104008F425
:10026E0005C0BDD28BD2C3D2C6D243C00B30E0E0A4
:10027E001E0720F00531E0E01E0708F006C0AFD2E1
:10028E00E88177D2B4D2B7D234C00531E0E01E0790
:10029E0020F00F31E0E01E0708F007C018B2E98128
:1002AE0068D2ADD2A4D2A7D224C00F31E0E01E078F
:1002BE0020F00932E0E01E0708F007C018B2E9810D
:1002CE0058D29DD2A0D297D214C00932E0E01E07B8
:1002DE0020F00333E0E01E0708F00CC018B2E981ED
:1002EE0048D28DD290D2E8BB18B2EA81A1E0E1D219
:1002FE00E129E8BBA8EEB3E011D37AD038CFFFCF17
:10030E00EA93EFB7EA938394EDE38E1690F093940D
:10031E008824ECE39E1668F063949924E2E08E2E16
:10032E00ECE36E1630F073946624E8E17E1608F066
:10033E007724E991EFBFE99118956CD2319602C0FE
:10034E0069D231972F01E991EFBFF991E991189593
:10035E00379A3E9A3D9AE6B1E760E6B908951A9348
:10036E001A2F1770E7B1E07FE7B9E7B1E12BE7B9D4
:10037E0083E08A95F1F7369A349BFECF83E08A9517
:10038E00F1F7E5B1F0E079C01A931A2FE5B3EF70EB
:10039E00AE2FE12FE07FEA2BE5BB82E08A95F1F7E5
:1003AE00AA9A82E08A95F1F7AA9882E08A95F1F7E7
:1003BE0064C0AA93A881E8DFE881E295E883A8816A
:1003CE00E3DF81E18A95F1F7219608951A930A9356
:1003DE001A2F0A81E12FF0E0E05AFE4FE081E00F84
:1003EE00AE2FE7DFB02EA12E198108812396089536
:1003FE00A2E016D2ACE0DDDFA1E012D2E0E0AE2E3C
:10040E00BE2E08951A931A2F1A3011F0BD1438F01B
:10041E00E0E0EA93A394AA2DD9DF1A3071F1B394D8
:10042E00A89AA12FC6DFA89828C01A931A2FE4B352
:10043E00E06FE4BBA29AA09AA19AAA98A898A9984C
:10044E00D12EE12FE058E0936201E12FE054E093CA
:10045E006301A4E1B0E062D2E7D1E6D1E5D1A0E23A
:10046E0093DF81E28A95F1F7A8E2A3DFA4E0A1DF92
:10047E00A5E89FDFA6E09DDFBBDF19910895BA9333
:10048E00AA932697F4D110E0AC85BD85E0E0F0E0AC
:10049E00ED93FC93EA89FB893196EA8BFB8B3197BE
:1004AE00E4912E2FE03009F409C1E12FE03031F450
:1004BE00253211F411E001C0BDD1FFC0E130A1F42D
:1004CE00253211F4B7D1F8C012E040E000E02D3231
:1004DE0011F401E0F2C02B3211F44BE2EEC02032E7
:1004EE0011F440E2EAC002C0E23039F450E013E009
:1004FE00203311F40068E1C003C0E33009F0DDC021
:10050E00203310F02A3308F007C0AAE05A9F502D6E
:10051E00E22FE0535E0FD1C0E22FE33639F491D1D2
:10052E00E889F989A481AA9392D1C6C0E33729F448
:10053E0088D193D1FBD01E2F07C0E03749F481D16B
:10054E008CD100D11E2F086002600F7730E038C0CA
:10055E00E43611F0E93611F4046002C0E53731F4E7
:10056E00E4E5F0E0EE83FF8315E00CC0E83511F40E
:10057E00086003C0E83709F09FC0EEE5F0E0EE83B7
:10058E00FF8314E002FF15C05CD1A889B9891496C7
:10059E00ED91FD91EA87FB87AB85AA2322F485D1E5
:1005AE00EA87FB874DE2403011F01F5F01C00B7FE1
:1005BE0007C047D1A889B9891496A3D1EA87FB87CA
:1005CE0000FD10C0151770F407FF08C002FF04C02D
:1005DE000B7F242F115001C020E301C020E22AD14D
:1005EE005150F0CF312F01FF16C0303099F003FF7C
:1005FE0006C0EE81FF812591EE83FF8305C0AE819B
:10060E00BF812D91AE83BF8315D1503009F051506B
:10061E003150EBCF48C020E3EE81FF8176D1E887E1
:10062E00F987EE81FF813296EE83FF83E885F985A7
:10063E00AA85BB85AE17BF0750F02F5FA885B98579
:10064E00EA85FB85EA1BFB0BEA87FB87EFCF2A3394
:10065E0028F003FF02C0295F01C0295D04FD19C007
:10066E00213320F4A885B985119709F409C05317D1
:10067E0010F000FF01C011C020E207FF0AC020E306
:10068E00006102FF06C00B7F4A93E1D0503009F0A3
:10069E005150D0D0503009F051503150A885B98505
:1006AE00129708F0B8CF00FF07C0503029F0515014
:1006BE00E0E2EA93CCD0F9CF10E0ECCEAC85BD856C
:1006CE00ED91FD91DBD064960895D3D08D013C81E0
:1006DE00A32F98DED801ED91FD913196FE93EE9306
:1006EE00CFD025960895FF92F82E26971A930A9347
:1006FE00DE011496D6D08D01E0E0EC83ED83EE831F
:10070E00EF83DE011896CDD0ED91FD91FA93EA9329
:10071E001A930A93ECE6F3E0FA93EA93DE01189645
:10072E00AEDE198108812896FF900895BA93AA9398
:10073E00A991B991EE27FF276D91662311F031969D
:10074E00FBCF0895BA93AA93AA27BB27E991F991F3
:10075E000590002011F01196FBCFFD010895E9855B
:10076E00A1E0A7D0E1290895EC81A1E0A2D0E12972
:10077E000895A1E09ED0E095E1210895E881A1E0E1
:10078E0098D0E1290895FF2766277727C2D00895CC
:10079E00C0D084E0A8DF26960895E5E0EA93A1E0B4
:1007AE0015DEEFE7F0E0FA93EA93F2018AD0F0CF8C
:1007BE00EAE0F0E0E415F505089518B2EE81A1E047
:1007CE0078D0E1290895E4E1F0E0E415F505089507
:1007DE00E8BB18B2ED81A1E06CD0E129089518B202
:1007EE00E981A1E066D0E129E8BB18B20895E8BB23
:1007FE0018B2EB81BECFE8BB18B2EA81BACFE8BB24
:10080E0018B2E881B6CFE8BB18B2EB81A1E051D0A7
:10081E00E1290895EA93FA93EFB7EA93F201089566
:10082E00C8DDA3E0B0E07AC0A0E3AEDD81E28A9538
:10083E00F1F708952A93AD85BE85EF85F889099560
:10084E000895E889F9893497E88BF98B0895AD8579
:10085E00BE85EF85F88909950895A889B9891496FA
:10086E00ED91FD91EE83FF83AE81BF8108955A9382
:10087E004A933A932A931A930A9308955D814C8171
:10088E003B812A81198108810895AF93BF93DB01C3
:10089E00AC0FBD1F05900D928A95E1F7BF91AF91F8
:1008AE0008950024AF0DB01D0895F195E195F04027
:1008BE000895EE230E2EEA2F19F0EE0F0A94E9F7A3
:1008CE0008956F2F660F660B762F0895FA9FF02D01
:1008DE00EB9FF00DEA9FE02DF10D089500241124F9
:1008EE0090E1AA0FBB1F001C111C0E1A1F0A18F450
:1008FE000E0E1F1E01C0A1609A9599F7FD01D00141
:10090E000895ED91FC91119708950590F491E02DC5
:10091E0008957A936A93FA93EA930895109639F0AC
:10092E00A8958AEF90E00197F1F71197C9F708950E
:00000001FF
